:020000040000FA
:020000000528D1
:080008002B28102058206D2068
:100010000000A6187C202618102826191028082869
:100020008312031398308B000B12831603130730CF
:1000300083160317890183120313003081000130F6
:10004000A500A40083160313FF308600003087004C
:100050008312031308000B194D280B182F280B10BF
:10006000F0300605A70000088220270603194B2858
:100070003928A40B3C283E28840A0900280884005B
:100080002308250603194928A50A2530A400A6142B
:10009000090026150900261409000B11840AA40B77
:1000A000522856280008822087000900A61409005B
:1000B0000830A3000430A1000230A20028308400E0
:1000C000A70127088000A70A840AA10B61286828D5
:1000D0000430A100A20B612808000B128B11280824
:1000E00084008B160008822087000000A61C75285B
:1000F000A6100B168B150800A50A2508A400A6104B
:0E0100006D2008008207803440342034103413
:00000001FF
