:020000040000FA
:020000000528D1
:080008004128112081010000D4
:10001000A918B62029180F2829191128062807140D
:100020000F288312031398308B0083160313FE30BE
:10003000960083160313FF30950083160313803058
:100040008100831603178901831203130030810096
:100050000130A500A40083160313FF308600003092
:100060008700003088008510831203138701860102
:1000700088018510E130A600A7000230A800A90180
:100080000800A60B41284428E130A600A70B412810
:100090004928E130A600A700A80B41280230A8009B
:1000A0000B1856288B1856280B197F286028F0301B
:1000B0000605AA000008BC202A0603197D286B2823
:1000C00083120313870A880A87088608831203139A
:1000D0000B108B100900A40B6E287028840A0900ED
:1000E0002B0884002308250603197B28A50A253040
:1000F000A400A914090029150900291409000B11ED
:100100000900840AA40B85288D2887010008BC20DB
:100110008700003081008B1209008B12A91409009E
:100120000830A3000430A1000230A2002B3084006C
:10013000AA012A088000AA0A840AA10B9928A028EB
:100140000430A100A20B992808002B08840000307D
:1001500081008B160008BC20870008000000A91C45
:10016000AE288701A9100B168B150800A50A2508D3
:10017000A400A910A5200800820780344034203450
:02018000103439
:00000001FF
