:020000040000FA
:020000000528D1
:080008002828102055206B2070
:100010000000A6187A20261810282619102808286B
:100020008312031398308B00831603130730831653
:100030000317890183120313003081000130A500EA
:10004000A40083160313FF308600003085000800EB
:100050000B194A280B1A2C280B10F0300605A700A4
:1000600000088020A706031948283628A40B392841
:100070003B28840A0900280884002308A5060319E0
:100080004628A50A2530A400A61409002615090053
:10009000261409000B11840AA40B4F2853280008CA
:1000A000802085000900A61409000830A300043050
:1000B000A1000230A20028088400A70127088000C0
:1000C000A70A840AA10B5E2865280430A100A20BB0
:1000D0005E28080008000B128B11280884008B167C
:1000E0000008802085000000A61C7328A6100B16AF
:1000F0008B150800A50A2508A400A6106B2008008F
:0A01000082078034403420341034AC
:00000001FF
