:020000040000FA
:020000000528D1
:080008002C2812205F20742057
:100010000000A61883202618102826191228082860
:10002000071410288312031398308B0083160313D0
:1000300007308316031789018312031300308100F0
:100040000130A500A40083160313FF3086000030A2
:1000500087008312031308000B1953280B1832284A
:100060008B1832280B103D28F0300605A700000839
:1000700089202706031951283F2807143D28A40B7F
:1000800042284428840A09002808840023082506F9
:1000900003194F28A50A2530A400A6140900261527
:1000A0000900261409000B11840AA40B58285D28A6
:1000B00000088920870081010900A6140900083082
:1000C000A3000430A1000230A20028308400A70160
:1000D00027088000A70A840AA10B68286F2804302B
:1000E000A100A20B682808000B128B1128088400BD
:1000F0008B160008892087000000A61C7C28A6100B
:100100000B168B150800A50A2508A400A61074205C
:0C01100008008207803440342034103492
:00000001FF
