:020000040000FA
:020000000528D1
:080008002D2812205B2070205E
:100010000000A6187F202618102826191228082864
:10002000071410288312031398308B000B128316C9
:10003000031307308316031789018312031300305B
:1000400081000130A500A40083160313FF30860051
:10005000003087008312031308000B194F280B1878
:1000600031280B10F0300605A70000088520270670
:1000700003194D283B28A40B3E284028840A090078
:10008000280884002308250603194B28A50A2530D3
:10009000A400A614090026150900261409000B1156
:1000A000840AA40B54285928000885208700810160
:1000B0000900A61409000830A3000430A100023092
:1000C000A20028308400A70127088000A70A840A1C
:1000D000A10B64286B280430A100A20B642808003F
:1000E0000B128B11280884008B16000885208700CE
:1000F0000000A61C7828A6100B168B150800A50A70
:100100002508A400A610702008008207803440341F
:040110002034103453
:00000001FF
