:020000040000FA
:020000000528D1
:080008002C2812206120762053
:100010000000A6188520261810282619122808285E
:10002000071410288312031398308B0083160313D0
:1000300007308316031789018312031300308100F0
:100040000130A500A40083160313FF3086000030A2
:1000500087008312031308000B1955280B18322848
:100060008B1832280B103D28F0300605A700000839
:100070008B2027060319532841288B108713071458
:100080000900A40B44284628840A09002808840093
:100090002308250603195128A50A2530A400A61413
:1000A000090026150900261409000B11840AA40B67
:1000B0005A285F2800088B20870081010900A614B8
:1000C00009000830A3000430A1000230A20028304B
:1000D0008400A70127088000A70A840AA10B6A28C8
:1000E00071280430A100A20B6A2808000B128B11A2
:1000F000280884008B1600088B2087000000A61CAF
:100100007E28A6100B168B150800A50A2508A4004A
:10011000A610762008008207803440342034103442
:00000001FF
