:020000040000FA
:020000000528D1
:080008002D2812205E20732058
:100010000000A61882202618102826191228082861
:10002000071410288312031398308B000B128316C9
:10003000031307308316031789018312031300305B
:1000400081000130A500A40083160313FF30860051
:10005000003087008312031308000B1952280B1875
:1000600031280B103C28F0300605A7000008882036
:100070002706031950283E2807143C28A40B4128C2
:100080004328840A09002808840023082506031948
:100090004E28A50A2530A400A6140900261509003B
:1000A000261409000B11840AA40B57285C280008A9
:1000B0008820870081010900A61409000830A300E8
:1000C0000430A1000230A20028308400A7012708D4
:1000D0008000A70A840AA10B67286E280430A100BB
:1000E000A20B672808000B128B11280884008B16BE
:1000F0000008882087000000A61C7B28A6100B168D
:100100008B150800A50A2508A400A6107320080076
:0A011000820780344034203410349C
:00000001FF
