:020000040000FA
:020000000528D1
:080008003B28112081010000DA
:10001000A6189F2026180F2826191128062807142D
:100020000F2883120313D8308B0083160313FF307D
:10003000960083160313FF30950083160313403098
:100040008100831603178901831203130030810096
:100050000130A500A40083160313FF308600003092
:100060008700003088008510831203138701860102
:100070008801851008000B1841288B1841280B199E
:100080006928831203130B108B104F28F0300605DC
:10009000A7000008A5202706031967285528831202
:1000A00003138716880986080900A40B58285A28C4
:1000B000840A0900280884002308250603196528F6
:1000C000A50A2530A400A614090026150900261447
:1000D00009000B11840AA40B6E28762887010008FA
:1000E000A5208700003081008B1209008B12A61416
:1000F00009000830A3000430A1000230A20028301B
:100100008400A70127088000A70A840AA10B82287F
:1001100089280430A100A20B822808002808840046
:10012000003081008B160008A52087000800000021
:10013000A61C97288701A6100B168B150800A50A88
:100140002508A400A6108E200800820780344034C1
:040150002034103413
:00000001FF
