:020000040000FA
:020000000628D0
:06000A002F280920272029
:1000100066288316031388010713871783160317AF
:10002000871583160313333099009A01831603133F
:10003000181398161812181583120313981718130B
:10004000181698111A088316031707160800831646
:1000500003138C16831203130B178B170800A200CF
:1000600083120313030EA300831603138C1E3C2874
:10007000831203138C1A3D2857288312031318196F
:1000800049289818502844281A080339A100840ADE
:10009000572818111A080339A100840A081757288D
:1000A00098101A080339A100840A881657285D2081
:1000B000230E8300A20E220E090021086120880071
:0E00C000080082070134023404340834662834
:00000001FF
