:020000040000FA
:020000000528D1
:040002000034003492
:080008007E285520E5203C3064
:10001000A200A70A6400291E092827080339AB009B
:10002000A1018B15A9153D20A70A6400A91821205C
:10003000A91A1F2829182728291932281428A91293
:100040000528A40A2408A300A9103D200800831253
:10005000031308148B178B110B1621089900A91A8A
:100060001F282F288312031388148B178B110B164C
:1000700021089900A91A1F283A288B110B122B303E
:1000800084000008C2208800D120D120D120D120B6
:10009000D120840A8801D120A30B412888018B1527
:1000A0002B3084002408A30008008312031390302F
:1000B0008B0083160313FE30960083160313C7309C
:1000C0008100831603178901831203130030810016
:1000D0000130A400A30083160313FF308600003014
:1000E0008800003088008510831203138801860180
:1000F0008801A9012B30A800A80A08008B188228C3
:100100000B188F28C720C72006188428C720C720AF
:100110008B10291AA91629160B100B110900C720DC
:10012000C7200608F039AA008800A919DB200608B4
:10013000F039031D9728C720C72088010008C22076
:100140002A06031DBE28A428A30BA728AB28840ACF
:100150000B108B100900A10A2B3084002208240602
:100160000319BA28A915A914D120D120D1200B1028
:100170008B10090029150B108B10090029140B1086
:100180008B1009008207803440342034103414303E
:10019000A6007C30A5000000A50BCB28A60BC92823
:1001A0000800C830A6007C30A5000000A50BD528AB
:1001B000A60BD328080028088400270803398000EC
:1001C0002B308400A80AA911080083160313071313
:1001D000871783160317871183160313333099008B
:1001E0009A01831603131813981618121815831200
:1001F000031398171813181698111A088316031763
:0802000007128312031308002A
:02400E00D128B7
:02401000FF3E71
:00000001FF
