:020000040000FA
:020000000528D1
:080008006F284620D5200430CA
:10001000A200A70A6400291E092827080339AB009B
:10002000A1018B15A9152E20A70A81016400A9182A
:100030001E2029182428291929281428A40A24084C
:10004000A300A9102E20080008148B132108990082
:10005000282888148B13210899002D288B110B1246
:100060002B3084000008B2208800C120C120C120AC
:10007000C120C120840A8801C120A30B3228880135
:100080008B152B3084002408A3000800831203136F
:1000900090308B0083160313FE30960083160313F3
:1000A000C7308100831603178901831203130030C0
:1000B00081000130A400A30083160313FF308600E3
:1000C00000308800003088008510831203138801F7
:1000D00086018801A9012B30A800A80A08008B1806
:1000E00073280B187F28B720B72006187528B7206B
:1000F000B7208B100B1229160B100B110900B7201B
:10010000B7200608F039AA008800A919CB200608F4
:10011000F039031D8728B720B72088010008B220D6
:100120002A06031DAE289428A30B97289B28840A2F
:100130000B108B100900A10A2B3084002208240622
:100140000319AA28A915A914C120C120C1200B1088
:100150008B10090029150B108B10090029140B10A6
:100160008B1009008207803440342034103414305E
:10017000A6007C30A5000000A50BBB28A60BB92863
:100180000800C830A6007C30A5000000A50BC528DB
:10019000A60BC3280800280884002708033980001C
:1001A0002B308400A80AA911080083160313071333
:1001B00087178316031787118316031333309900AB
:1001C0009A01831603131813981618121815831220
:1001D000031398171813181698111A088316031783
:0801E00007128312031308004B
:043000000034003464
:00000001FF
