:020000040000FA
:020000000528D1
:080008006E284520D4200430CD
:10001000A200A70A291E092827080339AB00A1015D
:100020008B15A9152D20A70A81016400A9181D2090
:1000300029182328291928281328A40A2408A300EA
:10004000A9102D20080008148B13210899002728D7
:1000500088148B13210899002C288B110B122B303C
:1000600084000008B1208800C020C020C020C0202B
:10007000C020840A8801C020A30B312888018B1579
:100080002B3084002408A30008008312031390304F
:100090008B0083160313FE30960083160313C730BC
:1000A0008100831603178901831203130030810036
:1000B0000130A400A30083160313FF308600003034
:1000C00088000030880085108312031388018601A0
:1000D0008801A9012B30A800A80A08008B187228F3
:1000E0000B187E28B620B62006187428B620B62035
:1000F0008B100B1229160B100B110900B620B6201D
:100100000608F039AA008800A919CA200608F039A3
:10011000031D8628B620B62088010008B1202A06D3
:10012000031DAD289328A30B96289A28840A0B1048
:100130008B100900A10A2B30840022082406031921
:10014000A928A915A914C020C020C0200B108B100D
:10015000090029150B108B10090029140B108B10A6
:100160000900820780344034203410341430A60053
:100170007C30A5000000A50BBA28A60BB828080003
:10018000C830A6007C30A5000000A50BC428A60B33
:10019000C2280800280884002708033980002B3073
:1001A0008400A80AA91108008316031307138717F0
:1001B00083160317871583160313333099009A01AA
:1001C00083160313181398161812181583120313A5
:1001D00098171813181698111A0883160317071280
:0601E00083120313080066
:043000000034003464
:00000001FF
