:020000040000FA
:020000000528D1
:0800080024280A2029208B1690
:10001000000008281930A3000030A500A700A600A2
:100020008316031304308100003086008800831695
:10003000031789018312031380308B003230810053
:1000400000308800A40108000B192628241C3F2832
:1000500047282308A0000A30A002031C33282008E8
:10006000A200A70A2B282208A60008002308A10046
:100070002508A102031C08002308A500080086012A
:100080008810081426085220860024144E28860161
:10009000081088142708522024108600323081006E
:1000A0000B11090082073F340634DB34CF34E634C9
:0A00B000ED34FD340734FF34EF3463
:00000001FF
