:020000040000FA
:020000000528D1
:0800080064283B200830A3002E
:10001000A80A2A1E082828080339AC0025208B15B9
:10002000AA15A80A81016400AA181B202A182128F1
:100030002A1923281128A50A2508A400AA1025207A
:10004000080008142128881423282508A400A40ADD
:100050008B110B122C308400003081008B160008AD
:10006000E320880084030000AA1C33288801AA101A
:100070000B168B1508008312031390308B00831628
:100080000313FE30960083160313C73081008316D6
:100090000317890183120313003081000130A5008A
:1000A000A40083160313FF30860000308800003060
:1000B0008800851083120313880186018801AA0134
:1000C0002C30A900A90A08008B186A280B1876287A
:1000D0000B19A528FF20FF2006186C28FF20FF2001
:1000E0008B100B122A160B100B110900FF20FF209A
:1000F0000608F039AB008800AA1909210608F03972
:10010000031D7E28FF20FF2088010008E3202B0626
:10011000031DA1288B28A40B8E289228840A0B107B
:100120008B1009002C3084002308250603199D2814
:10013000AA15AA140B108B1009002A150B108B108E
:1001400009002A140B108B100900FF20FF20FF204C
:10015000FF20FF20FF20FF20FF20FF20FF20FF20A7
:10016000FF20FF20FF20FF20FF20FF20FF20FF2097
:10017000FF20FF20FF20FF20A40BBF28D928FF204D
:10018000FF20FF20FF20FF20FF20FF20FF20FF2077
:10019000FF20FF20FF20FF20FF20FF20FF20FF2067
:1001A000FF20840A0008E3208800003081000B1142
:1001B0000900003081002508A400AA142C30840016
:1001C0000B118B1209008207803440342034103424
:1001D0000830A3000430A1000230A2002C308400BB
:1001E000AB012B088000AB0A840AA10BF128F82888
:1001F0000030AB000430A100A20BF128080014303D
:10020000A7007C30A6000000A60B0329A70B01293C
:100210000800290884002808033980002C30840055
:06022000A90AAA11080062
:00000001FF
