:020000040000FA
:020000000528D1
:0800080057283120D0201B20F5
:1000100081016400A9181120291817282919192805
:100020000828A50A2508A400A9101B200800081408
:100030001728881419282508A400A40A8B110B126C
:100040002B308400003081008B160008CB20880004
:1000500084030000A91C29288801A9100B168B1500
:1000600008008312031398308B0083160313FE30AD
:10007000960083160313C730810083160317890186
:1000800083120313003081000130A500A400831601
:100090000313FF3086000030880000308800851090
:1000A00083120313880186018801A90108000B1837
:1000B0005D288B185D280B198728E720E7200608A4
:1000C000F039AA000608F039031D6228E720E7206E
:1000D0000008CB202A06031D83286E28A40B712854
:1000E0007528840A0B108B1009002B30840023081C
:1000F000250603197F28A9140B108B100900291558
:100100000B108B10090029140B108B100900E7202D
:10011000E720E720E720E720E720E720E720E720A7
:10012000E720E720E720E720E720E720E720E72097
:10013000E720E720E720E720E720E720840AA40B58
:10014000A228C128E720E720E720E720E720E720D2
:10015000E720E720E720E720E720E720E720E72067
:10016000E720E720E720E720E720E720E720E72057
:10017000E7200008CB2088000000003081000B1130
:100180000900003081002508A400A9142B30840048
:100190000B118B1209008207803440342034103454
:1001A0000830A3000430A1000230A2002B308400EC
:1001B000AA012A088000AA0A840AA10BD928E028EB
:1001C0000030AA000430A100A20BD9280800143086
:1001D000A7007C30A6000000A60BEB28A70BE9289F
:0201E000080015
:00000001FF
