:020000040000FA
:020000000528D1
:0800080067283E200430A2002D
:10001000A70A291E082827080339AB00A1018B1560
:10002000A9152620A70A81016400A9181C202918F7
:100030002228291924281228A40A2408A300A91078
:100040002620080008142228881424288B110B125B
:100050002B3084000008AA208800B920B920B920DC
:10006000B920B920840A8801B920A30B2A28880165
:100070008B152B3084002408A3000800831203137F
:1000800090308B0083160313FE3096008316031303
:10009000C7308100831603178901831203130030D0
:1000A00081000130A400A30083160313FF308600F3
:1000B0000030880000308800851083120313880107
:1000C00086018801A9012B30A800A80A08008B1816
:1000D0006B280B187728AF20AF2006186D28AF20AB
:1000E000AF208B100B1229160B100B110900AF203B
:1000F000AF200608F039AA008800A919C320060815
:10010000F039031D7F28AF20AF2088010008AA2006
:100110002A06031DA6288C28A30B8F289328840A5F
:100120000B108B100900A10A2B3084002208240632
:100130000319A228A915A914B920B920B9200B10B8
:100140008B10090029150B108B10090029140B10B6
:100150008B1009008207803440342034103414306E
:10016000A6007C30A5000000A50BB328A60BB12883
:100170000800C830A6007C30A5000000A50BBD28F3
:10018000A60BBB2808002808840027080339800034
:0A0190002B308400A80AA911080012
:00000001FF
