:020000040000FA
:020000000528D1
:0800080065283C200830A3002C
:10001000EF20A80A2A1E082828080339AC008B15EF
:10002000AA152620A80A81016400AA181C202A18F3
:1000300022282A1924281228A50A2508A400AA1073
:100040002620080008142228881424282508A40043
:10005000A40A8B110B122C308400003081008B1607
:100060000008EA20880084030000AA1C34288801C4
:10007000AA100B168B1508008312031390308B0007
:1000800083160313FE30960083160313C7308100D6
:100090008316031789018312031300308100013096
:1000A000A500A40083160313FF30860000308800EB
:1000B00000308800851083120313880186018801AF
:1000C000AA012C30A900A90A08008B186B280B186C
:1000D00077280B19A6280621062106186D28062167
:1000E00006218B100B122A160B100B11090006218A
:1000F00006210608F039AB008800AA19102106086D
:10010000F039031D7F280621062188010008EA2016
:100110002B06031DA2288C28A40B8F289328840A61
:100120000B108B1009002C308400230825060319BE
:100130009E28AA15AA140B108B1009002A150B1063
:100140008B1009002A140B108B10090006210621C0
:100150000621062106210621062106210621062167
:100160000621062106210621062106210621062157
:1001700006210621062106210621A40BC028E0281D
:100180000621062106210621062106210621062137
:100190000621062106210621062106210621062127
:1001A0000621062106210621062106210621840AB0
:1001B0000008EA2088000000003081000B110900CF
:1001C000003081002508A400AA142C3084000B11F3
:1001D0008B120900820780344034203410340830F8
:1001E000A3000430A1000230A2002C308400AB0137
:1001F0002B088000AB0A840AA10BF828FF280030E6
:10020000AB000430A100A20BF82808001430A700AE
:100210007C30A6000000A60B0A29A70B08290800BD
:10022000290884002808033980002C308400A90A9A
:04023000AA11080007
:00000001FF
