:020000040000FA
:020000000628D0
:040002000034003492
:06000A003D280A20182029
:10001000352086288316031388018601061483166B
:1000200003178901831203138B170B16A401080011
:100030008316031307138717831603178715831671
:100040000313333099009A0183160313181398167B
:1000500018121815831203139817181318169811ED
:100060001A088316031707120800831603138C1649
:10007000831203130B178B170800A20083120313BC
:10008000030EA300831603138C1E4A288312031346
:100090008C1A5E28831203130B1E50288B185228CB
:1000A000000078288B1024089900A40A2408043A38
:1000B0000319A40100000130880678288312031375
:1000C00018196A289818712865281A080339A10098
:1000D000840A7D2818111A080339A100840A081718
:1000E0007D2898101A080339A100840A88167D28F3
:1000F000230E8300A20E220E090021088120880011
:0E01000078288207013402340434083486283B
:00000001FF
