:020000040000FA
:020000000528D1
:080008002C2813206F20382082
:100010008B160A28000064000A28A00A2008A40001
:10002000482038200800A001A401A601A801A701CA
:100030008316031304308100003086008800831685
:10004000031789018312031380308B003230810043
:1000500000308800A50108000B193528831203130E
:100060008C1A9628831203130900251C512859283D
:10007000A701A8012608A100A3000A30A102031CC1
:1000800045282108A300A80A3D282308A700080046
:100090002408A2002608A202031C08002408A600C7
:1000A000080086018810081427086420860025149B
:1000B000602886010810881428086420251086000E
:1000C000323081000B11090082073F340634DB34E3
:1000D000CF34E634ED34FD340734FF34EF34831687
:1000E0000313071387178316031787118316031348
:1000F000333099009A0183160313181398121812BB
:10010000181583120313981718131816981118113D
:1001100098101A08831603170712831603138C16F8
:10012000831203130B1783120313080083120313A4
:100130009818A4281819AA289D28831203131A08AE
:10014000A40048203820B328831203131A089810FB
:100150008817B328831203131A08A40048203820F4
:0C01600018110817B328831203130900BC
:043000000034003464
:00000001FF
